:04000000803118280B
:100008007E1480310B1F09280A2816284E011A1C55
:100018000E280F281628101C12281328162880319D
:10002800F92080317E10090080311A28F001F10191
:10003800F201F301F4017E1040018031D1285828E3
:1000480040010E1E282829282C28F001F00A6E28C5
:100058000330F0006E2840010E1A332834286E2829
:100068000230F000F101F2016E287208803AF700C0
:1000780080307702031D422814307102031C452882
:1000880046286E2840010E1A4A284B284C282C284E
:10009800F001F00A8031EC2080316E2840010E1EFC
:1000A800562857286E2834287008F700F801780871
:1000B800003A031960286E287708003A03192428A3
:1000C800013A03192F28033A03193928013A031969
:1000D80052286E2808004001980199019A013F3082
:1000E8009200F0309300DF309400CF307E01CE00D4
:1000F800F030C3003730B800C401B901CF01BA01EC
:10010800C501D0013730BB00F030C600FF30D10048
:100118003F30BC00F030C700FF30D2000800440177
:100128008F01900101309100FF308D0006308C0066
:100138004E01101044010D08F4000C08F3004E01A4
:100148001A142230F7000130F8008131192180316A
:10015800013044018E00080044010E1DB428B52862
:10016800BC280E1076088D0075088C000E14C02867
:1001780076088D0075088C0008000130F107003002
:10018800F23D79087A040319CA28CB28D0287A08BE
:100198008A0079080A00803108008031DF20803128
:1001A80081311E2180318B170B178031232080313C
:1001B800D9288031182881310621803180316F207B
:1001C80080318131102180318031932080310800C5
:1001D800031040019A1E03140318F328F62840015F
:1001E8009A16F82840019A1208004E011010740857
:1001F800F6007308F5008031B02080318031C120CD
:10020800803108004F0196019701980199019A01E0
:100218009B019C019D010800623051018D008F01F6
:10022800910102309300920108007808FA007708DB
:0E023800F9000800F001F101F20108000800D1
:020000040001F9
:0A000E00EC3FFF3F9F3FFF3FFF3F25
:00000001FF
